{
 "ProcessingTook": "1896 ms among 10 blockchains",
 "SearchData" :
 [
{"FoundDataIn": "syscoin", "block" : 202903, "previousblockhash" : "3d043a818146754fc74f95154d94eef21febbaf0b6678600c32888e5d706ce79", "auxpow" : { "parentblock" : "00000020af873e93ff4fcca4e8b7dbdd8c86d160315a3a859f901100000000000000000043f6ead99a68db086d0e2a82190399a5def91ade964a4e28798c6dbde24ef3934108aa5d5ca3151775b0271e", "chainmerklebranch" : [ "25232ae79b1ce99edd3c1bd61d873d4cfc6d7ded7a2e8b453b393fee22602099", "e87fe13627c8f4e9ad39d1c9dedbfe5977b0f18b6a84c412b6af184c24e5ee3f", "15bd583dd099f64b267ef3b9c3037a60c37c95ff9bfb2d479c5a46aeef7b123e", "914efe0453b7693850d76d15d8fc4af9c21d8199da320b7cfa59eb0d99a493f5" ], "merklebranch" : [ "3669f6d3fd58da136a387a2af383e4598e8bc486241becd3b4b4d80d8f8cdf41", "c12043861f5705f107a104863fa5b690015242d5ea3bff3a7df356d383f7c10e", "75a780c94c59025badb11cc28917a5c9ce1e9990c4a52db95a96cfc02f1d01de", "1234f9c99570123b5396ead78840c78ffcf020e97707eeed28ffde69be6ff41b", "283c69e29b4713a299c4accd1d929d27ffb3b1f2ae19cf1887687bd88ef2db9d", "6ce21c7a336beea056f52d9ce98c57a456fb3bdadb01ea0984129d760b12afbb", "8fb6b8968fdaead8b6dfd45fc886850a787b0ceb616066c7ede8cd72eb0269eb", "f312a90adca1e4f649ce5bf4368d1fed921420e80bfeb9d0cbc602912925c1aa", "9e52772cc6e686c9d5de4b46a200d7a660f3b6f665ba122273c3d9dca610c2b6", "aaeaaf49d44f1e40901cd66141f9197f74541513122df0ed6f65303a21a71b2a", "f93506e4e4968eef069cccf9a2b7346dddec015fca2bb2a834ed7ffb4db0f234", "e3a86932369356a814692e23b659b4043a9ba55902cc2f147ee7a7f748af6aad" ], "chainindex" : 14, "tx" : { "blockhash" : "00000000000000000170a8060327d88692508962cc7a976b98981b41b7123c95", "vout" : [ { "scriptPubKey" : { "addresses" : [ "SfYHFxiGv4mRtUfQVHxfMWknEt53Bjj286" ], "type" : "pubkeyhash", "reqSigs" : 1, "hex" : "76a914c825a1ecf2a6830c4401620c3a16f1995057c2ab88ac", "asm" : "OP_DUP OP_HASH160 c825a1ecf2a6830c4401620c3a16f1995057c2ab OP_EQUALVERIFY OP_CHECKSIG" }, "n" : 0, "value" : 12.77160397 }, { "scriptPubKey" : { "type" : "nulldata", "hex" : "6a24aa21a9ed7caedead04fa2aabeaafb18dcb622c9614de68688405e64397ae975d98c07f98080000000000000000", "asm" : "OP_RETURN aa21a9ed7caedead04fa2aabeaafb18dcb622c9614de68688405e64397ae975d98c07f98 0000000000000000" }, "n" : 1, "value" : 0 }, { "scriptPubKey" : { "type" : "nulldata", "hex" : "6a4c2952534b424c4f434b3a24991f552f81bfa513891b6f6c630b9283526a4892d13dd3f714df27001b7903", "asm" : "OP_RETURN 52534b424c4f434b3a24991f552f81bfa513891b6f6c630b9283526a4892d13dd3f714df27001b7903" }, "n" : 2, "value" : 0 }, { "scriptPubKey" : { "type" : "nulldata", "hex" : "6a24b9e11b6dadf0781e0a750ebc48bb17c44f2930a2ef1be744e8361b85e45c3bdffa701c0f", "asm" : "OP_RETURN b9e11b6dadf0781e0a750ebc48bb17c44f2930a2ef1be744e8361b85e45c3bdffa701c0f" }, "n" : 3, "value" : 0 } ], "vin" : [ { "sequence" : 0, "coinbase" : "039c27092cfabe6d6d006d9623168559ba66abaaeadda9aa83f01f052b0dd466520a01ad20123344c410000000f09f909f00144d696e6564206279207365726179657274756e6100000000000000000000000000000000000000000000000500a32a0100" } ], "hex" : "01000000010000000000000000000000000000000000000000000000000000000000000000ffffffff64039c27092cfabe6d6d006d9623168559ba66abaaeadda9aa83f01f052b0dd466520a01ad20123344c410000000f09f909f00144d696e6564206279207365726179657274756e6100000000000000000000000000000000000000000000000500a32a01000000000004cdeb1f4c000000001976a914c825a1ecf2a6830c4401620c3a16f1995057c2ab88ac00000000000000002f6a24aa21a9ed7caedead04fa2aabeaafb18dcb622c9614de68688405e64397ae975d98c07f9808000000000000000000000000000000002c6a4c2952534b424c4f434b3a24991f552f81bfa513891b6f6c630b9283526a4892d13dd3f714df27001b79030000000000000000266a24b9e11b6dadf0781e0a750ebc48bb17c44f2930a2ef1be744e8361b85e45c3bdffa701c0feaefdb3b", "txid" : "cdc7959d802489823ab71f5412dd8d8b15ecafa087ca3433dcb3f3189b741dcc", "hash" : "cdc7959d802489823ab71f5412dd8d8b15ecafa087ca3433dcb3f3189b741dcc", "version" : 1, "size" : 341, "vsize" : 341, "weight" : 1364, "locktime" : 1004269546 } }, "nTx" : 1, "versionHex" : "10000104", "version" : 268435716, "height" : 202903, "weight" : 5176, "size" : 1321, "strippedsize" : 1285, "confirmations" : 1, "hash" : "a98ed0d56c8836c26910aab6fa0de9d7937cbd9ab322aad8d265afcc0240fdcf", "merkleroot" : "b164b1c0d958dae25c136f60fc5b9a768080214372932657bcfc0b31a2c18d65", "tx" : [ "b164b1c0d958dae25c136f60fc5b9a768080214372932657bcfc0b31a2c18d65" ], "time" : 1571424252, "mediantime" : 1571423796, "bits" : "180545d9", "difficulty" : 208520332231.647, "chainwork" : "0000000000000000000000000000000000000000005a44d1612b3821a159be78" }
]
}
