{
 "ProcessingTook": "2313 ms among 10 blockchains",
 "SearchData" :
 [
{"FoundDataIn": "syscoin", "block" : 202700, "hash" : "959b574eb1411b486a1253c5f7d972e50d28865273cdb19ee014256c30efff3b", "confirmations" : 1, "strippedsize" : 1285, "size" : 1321, "weight" : 5176, "height" : 202700, "version" : 268435716, "versionHex" : "10000104", "merkleroot" : "d13f1cff569082822ea00d3c46f27243ad77aab652a56e85758fdb4f7cebd52f", "tx" : [ "d13f1cff569082822ea00d3c46f27243ad77aab652a56e85758fdb4f7cebd52f" ], "time" : 1571411255, "mediantime" : 1571411037, "bits" : "180545d9", "difficulty" : 208520332231.647, "chainwork" : "0000000000000000000000000000000000000000005a1e5198432fe9432ed341", "nTx" : 1, "auxpow" : { "tx" : { "hex" : "01000000010000000000000000000000000000000000000000000000000000000000000000ffffffff64038327092cfabe6d6da1f7b08241c39d41c0d8a3b5030933c76977859d2dacaa67e212c68d10e16c8210000000f09f909f00164d696e656420627920737a77777563616977616e313200000000000000000000000000000000000000000005001a44a65d50bb000004b378884c000000001976a914c825a1ecf2a6830c4401620c3a16f1995057c2ab88ac00000000000000002f6a24aa21a9ed5f36ce73d6e5c2eade30144f5e4d3ec895c9a8cf3f93afeab9806ac7af448d6b08000000000000000000000000000000002c6a4c2952534b424c4f434b3a000d4e4095c9fb1e5c2972eb7eea1e2fc1c29db43dcb931a30a2c626001b77740000000000000000266a24b9e11b6d964cb812fc2000ae851ba8da2000685d60e908b7b739d153536f1e729726dfa9bc027249", "txid" : "5352b62c41f8de2e1f6fd65e044bcaf542f1731e995d0df85dd983f47688df34", "hash" : "5352b62c41f8de2e1f6fd65e044bcaf542f1731e995d0df85dd983f47688df34", "version" : 1, "size" : 341, "vsize" : 341, "weight" : 1364, "locktime" : 1232208572, "vin" : [ { "coinbase" : "038327092cfabe6d6da1f7b08241c39d41c0d8a3b5030933c76977859d2dacaa67e212c68d10e16c8210000000f09f909f00164d696e656420627920737a77777563616977616e313200000000000000000000000000000000000000000005001a44a65d", "sequence" : 47952 } ], "vout" : [ { "value" : 12.84012211, "n" : 0, "scriptPubKey" : { "asm" : "OP_DUP OP_HASH160 c825a1ecf2a6830c4401620c3a16f1995057c2ab OP_EQUALVERIFY OP_CHECKSIG", "hex" : "76a914c825a1ecf2a6830c4401620c3a16f1995057c2ab88ac", "reqSigs" : 1, "type" : "pubkeyhash", "addresses" : [ "SfYHFxiGv4mRtUfQVHxfMWknEt53Bjj286" ] } }, { "value" : 0, "n" : 1, "scriptPubKey" : { "asm" : "OP_RETURN aa21a9ed5f36ce73d6e5c2eade30144f5e4d3ec895c9a8cf3f93afeab9806ac7af448d6b 0000000000000000", "hex" : "6a24aa21a9ed5f36ce73d6e5c2eade30144f5e4d3ec895c9a8cf3f93afeab9806ac7af448d6b080000000000000000", "type" : "nulldata" } }, { "value" : 0, "n" : 2, "scriptPubKey" : { "asm" : "OP_RETURN 52534b424c4f434b3a000d4e4095c9fb1e5c2972eb7eea1e2fc1c29db43dcb931a30a2c626001b7774", "hex" : "6a4c2952534b424c4f434b3a000d4e4095c9fb1e5c2972eb7eea1e2fc1c29db43dcb931a30a2c626001b7774", "type" : "nulldata" } }, { "value" : 0, "n" : 3, "scriptPubKey" : { "asm" : "OP_RETURN b9e11b6d964cb812fc2000ae851ba8da2000685d60e908b7b739d153536f1e729726dfa9", "hex" : "6a24b9e11b6d964cb812fc2000ae851ba8da2000685d60e908b7b739d153536f1e729726dfa9", "type" : "nulldata" } } ], "blockhash" : "00000000000000000503cb353518fa2ea179af663211515aa1f197bed4aa02bf" }, "chainindex" : 14, "merklebranch" : [ "da2340cb4c345267271a4928b8bfcb49225ddc303f076974bbd987ee9774eaad", "0303912a7b120df9d984e2ec9b1cd954934be6f24847b05212b59b33984a8ce3", "e3c5fb46c701da4ac766f10210724ce8e1ae72dfd6d03a7ad3e8b979cec35c95", "8fbcd04dfcfd0930c8e98d1f1a1c0104ecb7907b9647957a653a84fa769c460a", "7af2e1564faedb55c188873c3e5d811840dd2888ac7578f2b616a7996dc96116", "87ed21b3c9af1e112793676ea173a88a1752ed90b8f127587089403a400c17e8", "0dcc9667362e41e8d95d6c02fa1d83cf7805e9bfb08aa4b3816277d5dd1ce723", "4850b456146137c04900954f8494a7b2007494baa381083a9fddc78a730918f5", "4b76261c8491965d9d4d48c9a59efb04c472a5e84b4f6243419e8dbbee69cf28", "60b1cd9cd29f4ac3fd0e0b84ffa769064e3608f522228f5863428bb71b24cf5d", "18daac17595350d4e08060470394c8e8ed5adaa8499ad1111840e3dd8b748d68", "a97c8402a4b874593045735e6e88b2564b8210613f2d2637d9472f27e50434c4" ], "chainmerklebranch" : [ "ea9131f2d00afca453c797120aa28a520c2166fa69203b3117547c7d5e149d2d", "e87fe13627c8f4e9ad39d1c9dedbfe5977b0f18b6a84c412b6af184c24e5ee3f", "d808d34aaa98dd6fd2ae68f2557371f08572598db7e1c28fe091ce2a9ef212c2", "46fdba81bfd0b607b91afadedb1bef3c076811807a0f8597aa20964df195c53b" ], "parentblock" : "00e00020d8e06ee43ddf40b44b9c007775bc0294bedb409f988805000000000000000000c46d67cb2adf4408a133cc57b17396f1a2082da5ec722c9537e94faf08a6891753d5a95d5ca31517c99d88d6" }, "previousblockhash" : "d551110654d0bb3f9ea03ec4b43f20fab92165500b898a2f24f9c22de5eeb2c7" }
]
}
